{
  "contractName": "MoneyOwner",
  "abi": [
    {
      "inputs": [],
      "payable": false,
      "stateMutability": "nonpayable",
      "type": "constructor"
    },
    {
      "constant": true,
      "inputs": [
        {
          "internalType": "address",
          "name": "",
          "type": "address"
        }
      ],
      "name": "moneyOwnership",
      "outputs": [
        {
          "internalType": "uint256",
          "name": "",
          "type": "uint256"
        }
      ],
      "payable": false,
      "stateMutability": "view",
      "type": "function"
    },
    {
      "constant": false,
      "inputs": [],
      "name": "buy",
      "outputs": [
        {
          "internalType": "bool",
          "name": "success",
          "type": "bool"
        }
      ],
      "payable": true,
      "stateMutability": "payable",
      "type": "function"
    },
    {
      "constant": true,
      "inputs": [],
      "name": "getBalance",
      "outputs": [
        {
          "internalType": "uint256",
          "name": "",
          "type": "uint256"
        }
      ],
      "payable": false,
      "stateMutability": "view",
      "type": "function"
    }
  ],
  "bytecode": "0x608060405234801561001057600080fd5b506101ca806100206000396000f3fe6080604052600436106100345760003560e01c806312065fe01461003957806340e0f29714610064578063a6f2ae3a146100c9575b600080fd5b34801561004557600080fd5b5061004e6100eb565b6040518082815260200191505060405180910390f35b34801561007057600080fd5b506100b36004803603602081101561008757600080fd5b81019080803573ffffffffffffffffffffffffffffffffffffffff169060200190929190505050610131565b6040518082815260200191505060405180910390f35b6100d1610149565b604051808215151515815260200191505060405180910390f35b60008060003373ffffffffffffffffffffffffffffffffffffffff1673ffffffffffffffffffffffffffffffffffffffff16815260200190815260200160002054905090565b60006020528060005260406000206000915090505481565b6000346000803373ffffffffffffffffffffffffffffffffffffffff1673ffffffffffffffffffffffffffffffffffffffff16815260200190815260200160002081905550600190509056fea265627a7a72315820773925a81a2780fc5b3b386c17b8c03814f11d02cec3d678fcf253a4621dfee564736f6c63430005100032",
  "source": "pragma solidity >= 0.5.0 < 0.7.0;\n\ncontract MoneyOwner {\n\n  mapping (address => uint) public moneyOwnership;\n\n  constructor() public {\n  }\n\n  function buy() payable public returns (bool success) { \n    moneyOwnership[msg.sender] = msg.value;\n    return true;\n  }\n\n  function getBalance() view public returns (uint){\n    return moneyOwnership[msg.sender];\n  }\n}\n",
  "sourcePath": "/Users/maorveitsman/impactical/contracts/MoneyOwner.sol",
  "compiler": {
    "name": "solc",
    "version": "0.5.16+commit.9c3226ce.Emscripten.clang"
  },
  "schemaVersion": "3.0.22",
  "updatedAt": "2020-01-26T21:29:29.332Z",
  "networkType": "ethereum",
  "devdoc": {
    "methods": {}
  },
  "userdoc": {
    "methods": {}
  }
}